{
  "contractName": "Tickets",
  "abi": [
    {
      "inputs": [],
      "stateMutability": "nonpayable",
      "type": "constructor"
    },
    {
      "inputs": [],
      "name": "owner",
      "outputs": [
        {
          "internalType": "address",
          "name": "",
          "type": "address"
        }
      ],
      "stateMutability": "view",
      "type": "function",
      "constant": true
    },
    {
      "inputs": [
        {
          "internalType": "uint256",
          "name": "",
          "type": "uint256"
        }
      ],
      "name": "tickets",
      "outputs": [
        {
          "internalType": "uint256",
          "name": "id",
          "type": "uint256"
        },
        {
          "internalType": "uint256",
          "name": "price",
          "type": "uint256"
        },
        {
          "internalType": "address",
          "name": "owner",
          "type": "address"
        }
      ],
      "stateMutability": "view",
      "type": "function",
      "constant": true
    },
    {
      "inputs": [
        {
          "internalType": "uint256",
          "name": "_index",
          "type": "uint256"
        }
      ],
      "name": "buyTicket",
      "outputs": [],
      "stateMutability": "payable",
      "type": "function",
      "payable": true
    }
  ],
  "bytecode": "0x6080604052336000806101000a81548173ffffffffffffffffffffffffffffffffffffffff021916908373ffffffffffffffffffffffffffffffffffffffff16021790555034801561005057600080fd5b5060005b600a8110156100f35767016345785d8a0000600182600a811061007a576100796100f9565b5b60030201600101819055506000600182600a811061009b5761009a6100f9565b5b6003020160020160006101000a81548173ffffffffffffffffffffffffffffffffffffffff021916908373ffffffffffffffffffffffffffffffffffffffff16021790555080806100eb90610161565b915050610054565b506101a9565b7f4e487b7100000000000000000000000000000000000000000000000000000000600052603260045260246000fd5b7f4e487b7100000000000000000000000000000000000000000000000000000000600052601160045260246000fd5b6000819050919050565b600061016c82610157565b91507fffffffffffffffffffffffffffffffffffffffffffffffffffffffffffffffff820361019e5761019d610128565b5b600182019050919050565b6103b5806101b86000396000f3fe6080604052600436106100345760003560e01c806350b447121461003957806367dd74ca146100785780638da5cb5b14610094575b600080fd5b34801561004557600080fd5b50610060600480360381019061005b9190610281565b6100bf565b60405161006f939291906102fe565b60405180910390f35b610092600480360381019061008d9190610281565b61010f565b005b3480156100a057600080fd5b506100a9610222565b6040516100b69190610335565b60405180910390f35b600181600a81106100cf57600080fd5b600302016000915090508060000154908060010154908060020160009054906101000a900473ffffffffffffffffffffffffffffffffffffffff16905083565b600a81108015610120575060008110155b61012957600080fd5b600073ffffffffffffffffffffffffffffffffffffffff16600182600a811061015557610154610350565b5b6003020160020160009054906101000a900473ffffffffffffffffffffffffffffffffffffffff1673ffffffffffffffffffffffffffffffffffffffff161461019d57600080fd5b600181600a81106101b1576101b0610350565b5b60030201600101543410156101c557600080fd5b33600182600a81106101da576101d9610350565b5b6003020160020160006101000a81548173ffffffffffffffffffffffffffffffffffffffff021916908373ffffffffffffffffffffffffffffffffffffffff16021790555050565b60008054906101000a900473ffffffffffffffffffffffffffffffffffffffff1681565b600080fd5b6000819050919050565b61025e8161024b565b811461026957600080fd5b50565b60008135905061027b81610255565b92915050565b60006020828403121561029757610296610246565b5b60006102a58482850161026c565b91505092915050565b6102b78161024b565b82525050565b600073ffffffffffffffffffffffffffffffffffffffff82169050919050565b60006102e8826102bd565b9050919050565b6102f8816102dd565b82525050565b600060608201905061031360008301866102ae565b61032060208301856102ae565b61032d60408301846102ef565b949350505050565b600060208201905061034a60008301846102ef565b92915050565b7f4e487b7100000000000000000000000000000000000000000000000000000000600052603260045260246000fdfea2646970667358221220490412d54f0e9b884a1fc0aa99212af3744152c43886d47dfd9221ed8d17b60a64736f6c634300080d0033",
  "immutableReferences": {},
  "source": "// SPDX-License-Identifier: MIT\npragma solidity >=0.4.22 <0.9.0;\n\nuint constant totalTickets = 10;\n\ncontract Tickets {\n    address public owner = msg.sender;\n\n    struct Ticket {\n        uint id;\n        uint price;\n        address owner;\n    }\n\n    Ticket[totalTickets] public tickets;\n\n    constructor() {\n        for(uint i = 0; i < totalTickets; i++){\n            // tickets[i].id = i;\n            tickets[i].price = 1e17; // 0.1ETH\n            tickets[i].owner = address(0x0);\n        }\n    }\n\n    function buyTicket(uint _index) external payable {\n        require(_index < totalTickets && _index >= 0);\n        require(tickets[_index].owner == address(0x0));\n        require(msg.value >= tickets[_index].price);\n        tickets[_index].owner = msg.sender;\n    }\n}",
  "sourcePath": "/Users/cristianrosca/Desktop/Solidity/web3-tickets/contracts/Tickets.sol",
  "compiler": {
    "name": "solc",
    "version": "0.8.13+commit.abaa5c0e.Emscripten.clang"
  },
  "schemaVersion": "3.4.7",
  "updatedAt": "2022-06-11T17:56:18.257Z",
  "networkType": "ethereum",
  "devdoc": {
    "kind": "dev",
    "methods": {},
    "version": 1
  },
  "userdoc": {
    "kind": "user",
    "methods": {},
    "version": 1
  }
}